:020000040800F2
:1000000030100020E1890008695E0008EB890008D3
:100010006B5E00086F5E0008735E00080000000061
:10002000000000000000000000000000775E0008F3
:10003000795E000800000000F78900087B5E000878
:10004000FB890008FB890008FB890008FB89000880
:10005000FB890008FB890008FB890008FB89000870
:10006000FB890008FB890008FB890008FB89000860
:10007000FB890008FB890008FB890008FB89000850
:10008000FB890008FB890008FB890008FB89000840
:10009000FB890008FB890008FB890008FB89000830
:1000A000FB890008FB890008FB890008FB89000820
:1000B000FB890008FB890008FB890008FB89000810
:1000C000FB890008FB890008FB890008FB89000800
:1000D000FB890008835E0008FB890008855E000834
:1000E000FB890008FB890008FB89000800F002F882
:1000F00000F03CF80AA090E8000C82448344AAF186
:100100000107DA4501D100F031F8AFF2090EBAE883
:100110000F0013F0010F18BFFB1A43F0010318473B
:10012000C0AF0000E0AF0000103A24BF78C878C12B
:10013000FAD8520724BF30C830C144BF04680C60ED
:10014000704700000023002400250026103A28BF35
:1001500078C1FBD8520728BF30C148BF0B60704739
:100160001FB508F061FC1FBD10B510BD08F082FC82
:100170001146FFF7F5FF00F009F808F0A0FC03B402
:10018000FFF7F2FF03BC08F0A1FC000004F051F8F7
:10019000064803F04BF8064801F01BFE054802F044
:1001A000D1F901E003F06EFBFCE700004A000020FB
:1001B00010020020FC0400200122C272704710B51A
:1001C0000446607B00B338480078401C364908700C
:1001D00008460078012804D0052809D00A2812D141
:1001E0000DE0324804F0DEFD304804F0E3FD0AE0A3
:1001F0002E4804F0E7FD2D4804F0ECFD03E000205C
:100200002949087000BF49E0607AE0B1207BD0B98D
:1002100025480078401C24490870084600780128C9
:1002200004D0142806D028280CD107E01F4804F079
:10023000B9FD07E01D4804F0C5FD03E000201A49A0
:10024000087000BF2AE0607A10B3207B00B3184822
:100250000078401C1649087008460078012804D030
:10026000142809D0282812D10DE0104804F09AFD76
:100270000E4804F0AFFD0AE00C4804F0A3FD0B4863
:1002800004F098FD03E000200949087000BF05E074
:10029000064804F087FD054804F08CFD10BD00B54C
:1002A0000448FFF789FF00BD000000206C0000201B
:1002B00001000020C400002070B504460E4615461B
:1002C0002A4604F10F01FE4805F05AFA70BD2DE9E7
:1002D000F04104460D461646AA20E073AA21217477
:1002E000EF2161740221A174E574267500270020B6
:1002F00006E004F10F01095C3944CFB2411CC8B2D9
:100300000628F6DB6775082204F10F012046FFF787
:10031000D3FFBDE8F0812DE9F04F87B005460C46CC
:100320001646002701200690002004E0215C394495
:10033000CFB2411CC8B2711E8142F7DCA01910F87F
:10034000010CB84202D007B0BDE8F08F2078AA288F
:1003500002D16078AF2800D0F5E70021D94881723A
:10036000A078012811D12079012801D1D64908703F
:100370002079022802D10120D3494870207903282E
:1003800003D10120D04908704870A078022816D106
:100390002079012805D128716871A871E871287247
:1003A00068722079A02801D1012028702079A12825
:1003B00005D1C64801F0BAFAC54802F01EFEA07881
:1003C00003287CD12079617941EA0020C149C880A5
:1003D000A079E17941EA0020BE498880207A617ADB
:1003E00041EA0020BB490880A07AE17A41EA002076
:1003F000B8494880207B617B41EA0020B5490881EB
:10040000A07BE17B41EA0020B2494881207C617CED
:1004100041EA0020AF498881A07CE17C41EA0020CC
:10042000AC49C8810698002861D008460088A0F22F
:10043000DC5908464088A0F2DC58A749886803F0D8
:10044000DCFA029008F03AFE824648460AF076FA54
:10045000834651460AF0D2FA9F490490886803F017
:10046000CCFA019009F0FAF9834640460AF066FAA0
:10047000594602900AF0C2FA824698490AF0ECFB0B
:10048000039004990AF08AF805900AF037FA914926
:1004900008809149886803F0B0FA029009F0DEF90B
:1004A000049048460AF04AFA039004990AF0A6FA22
:1004B00089490590886803F0A0FA019000E016E0F1
:1004C00008F0FCFD039040460AF038FA02900399C8
:1004D0000AF094FA814904900AF060F8834605997D
:1004E0000AF05CF882460AF009FA7A494880A07856
:1004F00010287DD12179090209B2627941EA02000E
:100500000AF01CFA824676490AF0BCF86F49086086
:10051000A179090209B2E27941EA02000AF00EFA71
:1005200082466F490AF0AEF868494860217A0902AC
:1005300009B2627A41EA02000AF000FA824668498A
:100540000AF0A0F861498860A17A090209B2E27A4A
:1005500041EA02000AF0F2F9824661490AF092F893
:100560005A49C861217B090209B2627B41EA020053
:100570000AF0E4F982465A490AF084F853490862BD
:10058000A17B090209B2E27B41EA02000AF0D6F936
:10059000824653490AF076F84C494862217C0902A8
:1005A00009B2627C41EA02000AF0C8F982464C496D
:1005B0000AF068F845498863A17C090209B2E27C27
:1005C00041EA02000AF0BAF9824645490AF05AF8AF
:1005D0003E49C863217D090209B2627D41EA0200F9
:1005E0000AF0ACF982463E490AF04CF8374900E07F
:1005F00005E00864A1783A462846FFF768FEA0782F
:1006000011286FD12179090209B2627941EA020009
:100610000AF094F9824632490AF034F82B494865C9
:10062000A179090209B2E27941EA02000AF086F9E9
:1006300082462B490AF026F824498865217A090266
:1006400009B2627A41EA02000AF078F98246244946
:100650000AF018F81D49C865A17A090209B2E27AC0
:1006600041EA02000AF06AF982461D490AF00AF8D6
:1006700016490867217B090209B2627B41EA020040
:100680000AF05CF98246164909F0FCFF0F494867F9
:10069000A17B090209B2E27B41EA02000AF04EF9AD
:1006A00082460F4909F0EEFF08498867217C09025C
:1006B00009B2627C41EA02000AF040F9824612E087
:1006C0009C060020C40000201C0600201801002009
:1006D0004A000020D0050020100200200080BB440A
:1006E00000007A4428E0FE4909F0CCFFFD49C1F83A
:1006F0008C00A17C090209B2E27C41EA02000AF006
:100700001DF98246F64909F0BDFFF649C1F890008F
:10071000217D090209B2627D41EA02000AF00EF968
:100720008246EF4909F0AEFFEE49C1F89400A17886
:100730003A462846FFF7CBFDA078122834D121791C
:10074000090209B2627941EA02000AF0F7F882462A
:10075000E34909F097FFE349C1F8A800A17909022C
:1007600009B2E27941EA02000AF0E8F88246DC497F
:1007700009F088FFDB49C1F8AC00217A090209B20F
:10078000627A41EA02000AF0D9F88246D44909F0B7
:1007900079FFD449C1F8B000A1783A462846FFF75E
:1007A00096FDD14802F029FCA078132804D1A17845
:1007B0003A462846FFF78BFDA078142804D1A1788B
:1007C0003A462846FFF783FDA078152804D1A17882
:1007D0003A462846FFF77BFD00BFB4E510B5044656
:1007E000C24805F04AF810BD2DE9FC5F04460E46EC
:1007F00017469846DDE90CAB0025AA2229466D1C58
:1008000004F10F00425429466D1C425406F10F00BA
:10081000C2B229466D1C04F10F0042540022294641
:100820006D1C4254AE4938460AF0E8F800900AF0D0
:100830001FF800B201909DF8052029466D1C04F1B7
:100840000F0042549DF8042029466D1C4254A449CF
:1008500040460AF0D3F800900AF00AF800B201907E
:100860009DF8052029466D1C04F10F0042549DF8A7
:1008700004202846691CCDB204F10F010A5498499E
:1008800050460AF0BBF8009009F0F2FF00B2019068
:100890009DF805202846691CCDB204F10F010A54C9
:1008A0009DF804202846691CCDB204F10F010A54BA
:1008B0008B4958460AF0A2F8009009F0D9FF00B21F
:1008C00001909DF805202846691CCDB204F10F0166
:1008D0000A549DF804202846691CCDB204F10F018A
:1008E0000A547F490E980AF089F8009009F0C0FF79
:1008F00000B201909DF805202846691CCDB204F194
:100900000F010A549DF804202846691CCDB204F159
:100910000F010A5472490F980AF070F8009009F01C
:10092000A7FF00B201909DF805202846691CCDB2B2
:1009300004F10F010A549DF804202846691CCDB229
:1009400004F10F010A54664910980AF057F8009014
:1009500009F08EFF00B201909DF805202846691C21
:10096000CDB204F10F010A549DF804202846691CF9
:10097000CDB204F10F010A54594911980AF03EF81A
:10098000009009F075FF00B201909DF805202846FF
:10099000691CCDB204F10F010A549DF804202846C9
:1009A000691CCDB204F10F010A544D4912980AF0A6
:1009B00025F8009009F05CFF00B201909DF8052039
:1009C0002846691CCDB204F10F010A549DF8042099
:1009D0002846691CCDB204F10F010A54281FA074E7
:1009E0004FF00009002007E004F10F01095C4944C1
:1009F00001F0FF09411CC8B2A842F5DB2846691C7A
:100A0000CDB204F10F0101F800902A462046FFF70D
:100A100053FCBDE8FC9F2DE9F84304460E461746FB
:100A20000025AA2229466D1C04F10F0042542946D4
:100A30006D1C4254052229466D1C42540022294651
:100A40006D1C425400969DF8012029466D1C4254AD
:100A50009DF8002029466D1C425400979DF8012006
:100A600029466D1C42549DF800202846691CCDB2D1
:100A700004F10F010A54281FA0744FF00008002051
:100A800007E004F10F01095C414401F0FF08411C3B
:100A9000C8B2A842F5DB2846691CCDB204F10F01AB
:100AA00001F800802A462046FFF706FCBDE8F883DF
:100AB0007FB504460025AA2229466D1C04F10F00CB
:100AC000425429466D1C4254062229466D1C42544C
:100AD000002229466D1C42549DF80520294607E056
:100AE00000007A44180100204A0000209C060020E3
:100AF0006D1C42549DF8042029466D1C42549DF8FB
:100B0000092029466D1C42549DF808202846691C7E
:100B1000CDB204F10F010A549DF80D202846691C3E
:100B2000CDB204F10F010A549DF80C202846691C2F
:100B3000CDB204F10F010A549DF821202846691C0A
:100B4000CDB204F10F010A549DF820202846691CFB
:100B5000CDB204F10F010A549DF825202846691CE6
:100B6000CDB204F10F010A549DF824202846691CD7
:100B7000CDB204F10F010A549DF829202846691CC2
:100B8000CDB204F10F010A549DF828202846691CB3
:100B9000CDB204F10F010A549DF82D202846691C9E
:100BA000CDB204F10F010A549DF82C202846691C8F
:100BB000CDB204F10F010A549DF831202846691C7A
:100BC000CDB204F10F010A549DF830202846691C6B
:100BD000CDB204F10F010A54281FA0740026002092
:100BE00006E004F10F01095C3144CEB2411CC8B2E9
:100BF000A842F6DB2846691CCDB204F10F010E5461
:100C00002A462046FFF758FB7FBD7FB504460025E6
:100C1000AA2229466D1C04F10F00425429466D1C7E
:100C20004254032229466D1C4254002229466D1C61
:100C300042549DF8052029466D1C42549DF804201D
:100C400029466D1C42549DF8092029466D1C4254CA
:100C50009DF808202846691CCDB204F10F010A5402
:100C60009DF80D202846691CCDB204F10F010A54ED
:100C70009DF80C202846691CCDB204F10F010A54DE
:100C80009DF821202846691CCDB204F10F010A54B9
:100C90009DF820202846691CCDB204F10F010A54AA
:100CA0009DF825202846691CCDB204F10F010A5495
:100CB0009DF824202846691CCDB204F10F010A5486
:100CC0009DF829202846691CCDB204F10F010A5471
:100CD0009DF828202846691CCDB204F10F010A5462
:100CE0009DF82D202846691CCDB204F10F010A544D
:100CF0009DF82C202846691CCDB204F10F010A543E
:100D00009DF831202846691CCDB204F10F010A5428
:100D10009DF830202846691CCDB204F10F010A5419
:100D20009DF835202846691CCDB204F10F010A5404
:100D30009DF834202846691CCDB204F10F010A54F5
:100D40009DF839202846691CCDB204F10F010A54E0
:100D50009DF838202846691CCDB204F10F010A54D1
:100D6000281FA0740026002006E004F10F01095C92
:100D70003144CEB2411CC8B2A842F6DB2846691CF9
:100D8000CDB204F10F010E542A462046FFF794FA23
:100D90007FBD2DE9F84304460E4617460025AA22DA
:100DA00029466D1C04F10F00425429466D1C425423
:100DB000072229466D1C4254002229466D1C4254CC
:100DC00000969DF8032029466D1C42549DF8022090
:100DD00029466D1C42549DF8012029466D1C425441
:100DE0009DF800202846691CCDB204F10F010A5479
:100DF00000979DF801202846691CCDB204F10F012F
:100E00000A549DF800202846691CCDB204F10F0158
:100E10000A54281FA0744FF00008002007E004F1D6
:100E20000F01095C414401F0FF08411CC8B2A8420F
:100E3000F5DB2846691CCDB204F10F0101F80080F2
:100E40002A462046FFF738FABDE8F8832DE9F84F27
:100E500004460E4617469846DDE90AAB0025AA224D
:100E600029466D1C04F10F00425429466D1C425462
:100E7000022229466D1C4254002229466D1C425410
:100E800000969DF8012029466D1C42549DF80020D3
:100E900029466D1C425400979DF8012029466D1C7F
:100EA00042549DF800202846691CCDB204F10F0180
:100EB0000A54CDF800809DF801202846691CCDB267
:100EC00004F10F010A549DF800202846691CCDB298
:100ED00004F10F010A54CDF800A09DF80120284626
:100EE000691CCDB204F10F010A549DF80020284678
:100EF000691CCDB204F10F010A54CDF800B09DF881
:100F000001202846691CCDB204F10F010A549DF856
:100F100000202846691CCDB204F10F010A540C9838
:100F200000909DF801202846691CCDB204F10F0104
:100F30000A549DF800202846691CCDB204F10F0127
:100F40000A540D9800909DF801202846691CCDB2E6
:100F500004F10F010A549DF800202846691CCDB207
:100F600004F10F010A540E9800909DF801202846C4
:100F7000691CCDB204F10F010A549DF800202846E7
:100F8000691CCDB204F10F010A540F9800909DF82E
:100F900001202846691CCDB204F10F010A549DF8C6
:100FA00000202846691CCDB204F10F010A54281F05
:100FB000A0744FF00009002007E004F10F01095C64
:100FC000494401F0FF09411CC8B2A842F5DB28469C
:100FD000691CCDB204F10F0101F800902A462046A9
:100FE000FFF76AF9BDE8F88F2DE9FE4F04460E467B
:100FF00017469846DDE90CAB0025CDF804A0AA22DF
:1010000029466D1C04F10F00425429466D1C4254C0
:10101000012229466D1C4254002229466D1C42546F
:10102000FE49304609F0EAFC009009F021FC00B2CC
:1010300002909DF8092029466D1C04F10F004254CE
:101040009DF8082029466D1C4254F449384609F0A1
:10105000D5FC009009F00CFC00B202909DF809202C
:1010600029466D1C04F10F0042549DF808202846C3
:10107000691CCDB204F10F010A54E849404609F059
:10108000BDFC009009F0F4FB00B202909DF809202D
:101090002846691CCDB204F10F010A549DF80820BE
:1010A0002846691CCDB204F10F010A549DF80720AF
:1010B0002846691CCDB204F10F010A549DF80620A0
:1010C0002846691CCDB204F10F010A549DF8052091
:1010D0002846691CCDB204F10F010A549DF8042082
:1010E0002846691CCDB204F10F010A542846691C38
:1010F000CDB204F10F0101F800B029466A1CD5B247
:1011000004F10F020E985054281FA0744FF00009EC
:10111000002007E004F10F01095C494401F0FF09D8
:10112000411CC8B2A842F5DB2846691CCDB204F1C7
:101130000F0101F800902A462046FFF7BDF8BDE8F0
:10114000FE8F2DE9FF4104460E460025AA222946BE
:101150006D1C04F10F00425429466D1C42540022BC
:1011600029466D1C425429466D1C425429466D1C6B
:1011700046549DF8092029466D1C42549DF80820CC
:1011800029466D1C42549DF80D202846691CCDB29D
:1011900004F10F010A549DF80C202846691CCDB2B9
:1011A00004F10F010A549DF829202846691CCDB28C
:1011B00004F10F010A549DF828202846691CCDB27D
:1011C00004F10F010A549DF82D202846691CCDB268
:1011D00004F10F010A549DF82C202846691CCDB259
:1011E00004F10F010A54281FA0740027002006E014
:1011F00004F10F01095C3944CFB2411CC8B2A842C6
:10120000F6DB2846691CCDB204F10F010F542A46C3
:101210002046FFF751F8BDE8FF812DE9F04788B07F
:1012200004467F4800787F49097890FBF1F201FB82
:1012300012017C480078401E814201D10120A0703B
:10124000774800787849097890FBF1F201FB1201A8
:1012500075480078401E814201D10120E07070483D
:1012600000787249097890FBF1F201FB12016F4896
:101270000078401E814201D10120607368480078E7
:101280006B49097890FBF1F201FB12016848007884
:10129000401E814201D1012060706148007865499B
:1012A000097890FBF1F201FB120162480078401EC0
:1012B000814201D10120A072594800785E49097825
:1012C00090FBF1F201FB12015B480078401E814265
:1012D00001D101202073524800785849097890FBC9
:1012E000F1F201FB120155480078401E814201D104
:1012F0000120A0734A480078401C494908702078B2
:1013000068B1002020704FF4C8716E234FF49672BC
:10131000CDE9001001212046FFF713FF44E160787A
:10132000A8B1002060704649086B09F0A1FA054693
:101330004448407A4349097BCDE900510290424834
:101340008368426801682046FFF74EFE2CE1607B0F
:1013500010B10020607327E1A07880B30020A07056
:101360003949486909F084FA05B23749086909F032
:101370007FFA06B23449C86809F07AFA07B23249EE
:10138000C86A09F075FA0FFA80F82F49886A09F0DF
:101390006FFA0FFA80F92C49486A09F069FA0FFAD6
:1013A00080FA0020CDE90250049043464A46514657
:1013B000CDE9007605902046FFF748FDF4E0FFE711
:1013C000E078A0B10020E0701D48806800EBC00309
:1013D00003EB00104FF6FF7303EA800218484068E1
:1013E000642300FB03F12046FFF7D3FCDCE0A07A86
:1013F00098B10020A0721548408A1449098A134AFE
:10140000D289124B9B89CDE90332CDE905100F48F3
:10141000418900890D4A52881AE024E00000C84240
:10142000020000200300002009000020040000202A
:101430000500002006000020070000200800002012
:10144000FC040020C400002010020020D005002071
:10145000CDE900200291614803888288C188204636
:10146000FFF7D3FBA0E0207B80B30020207305A909
:101470005B4800F0E0FF00200AE005A931F81010F9
:10148000A1F57A7109B205AA22F81010411CC8B260
:101490000628F2DB0022BDF81E0080B2BDF81C1049
:1014A00089B2CDE9020204920191BDF81A0080B21E
:1014B0000090BDF8180083B2BDF8160082B2BDF8E6
:1014C000140081B22046FFF7F3FA6DE0FFE7A07B3E
:1014D00080B10020A07343494348006809F08EFAA8
:1014E000064609F00BFA85B2002229462046FFF78E
:1014F00092FA59E02079E8B1002020713B48016C54
:10150000C06B3A4A926B394B5B6ACDE90332CDE945
:1015100005013648006A3549C969344A9268CDE9FF
:101520000021029031484368012102682046FFF7FC
:101530005BF939E06079F0B1002060712B48D0F898
:101540009420D0F89010D0F88C00284B9B6FCDE9F8
:101550000330CDE905122548416F006F234AD26D53
:10156000CDE9002002912148836D0221426D204681
:10157000FFF73AF918E0A079B0B10020A07103900C
:10158000049005900146024606901848D0F8B00035
:10159000CDE9012100901548D0F8AC300321D0F8F6
:1015A000A8202046FFF720F908B0BDE8F0871049D1
:1015B00009781E290CDD00210D4A11700D49897A28
:1015C00019B901220B498A7202E0002209494A72C4
:1015D00007490978491C064A11707047D005002058
:1015E000F00400200000C842600000201801002024
:1015F0000A000020C40000202DE9F04781460C4677
:1016000015462946C34809F0F9F9804641464FF08E
:101610007E5009F037F80746214608F0BFFF06461E
:101620003146204609F02EF8BDE8F0872DE9F84F45
:101630000F4615461C462946B64809F0DFF9814693
:10164000394609F0DBF9804641464FF07E5009F0FB
:1016500019F806463146B04809F0D0F982463146BD
:10166000304609F0CBF98346514608F097FF814692
:101670004FF07E5108F092FF804641464FF07E5079
:1016800009F000F820603146A34809F0B7F9834615
:101690003146304609F0B2F95946009008F07EFF15
:1016A00082464FF07E5108F079FF804631469A48D5
:1016B00009F0A4F9314600904FF0804009F09EF9FE
:1016C0008346314609F09AF98246009908F066FF90
:1016D0008146414608F0D6FF606031468E4809F0E9
:1016E0008DF983463146304609F088F95946009015
:1016F00008F054FF81464FF07E5108F04FFF8046BE
:101700003146304609F07AF98246414608F0BAFF80
:10171000A060BDE8F88F2DE9F04107460D4614465C
:101720002146284608F03AFF06463146204608F092
:10173000A9FFBDE8F0810FB4F0B58DB005460F46A6
:101740001A9C224617A904A808F025FB04A807C87C
:1017500007AB07C321464FF07E5009F00FFB06464A
:10176000324614A901A808F016FB01A807C80AAB65
:1017700007C307AA0AA9284608F029FB0DB0F0BC48
:101780005DF814FB0FB470B59EB005460E461446C6
:101790000FA8002181604160016000BF04F10C01CD
:1017A0000CA8A26808F0F7FA0CA807C812AB07C388
:1017B00004F1180109A8626808F0EDFA09A807C841
:1017C00015AB07C325A906A8226808F0E4FA06A805
:1017D00007C818AB07C315AA18A903A808F0F7FA99
:1017E00003A807C81BAB07C312AA1BA9684608F0C9
:1017F0009AFA9DE807000FAB07C3D4E90712A06966
:10180000C4E90412E0600FA807C8C4E90712A06188
:101810000FA807C885E807001EB070BC5DF814FB70
:101820002DE9F05F83460C4615463C48A1680068E8
:1018300009F0E4F880463A486168006809F0DEF88B
:1018400081462846216809F0D9F88246494608F0C1
:10185000A5FE0746414609F091FA06463048006861
:101860002E4908602E480660304609F001F8BDE8B0
:10187000F09F2DE9F05F83460C4615462948A16884
:10188000006809F0BBF8804627486168006809F0E5
:10189000B5F881462846216809F0B0F882464946E5
:1018A00008F07CFE0746414609F068FA06461E48E5
:1018B00000681C4908601C480660304608F0D8FFE4
:1018C000BDE8F09F0FB4F0B58DB005460F461A9CE9
:1018D00021464FF07E5009F051FA0646324617A9CC
:1018E00004A808F058FA04A807C807AB07C32246A3
:1018F00014A901A808F04FFA01A807C80AAB07C34A
:1019000007AA0AA9284608F062FA0DB0F0BC5DF8F3
:1019100014FB0000DB0FC940000040401000002015
:101920000C000020180000201400002038B50446E8
:10193000DC48DD4BDD4A11460090204607F009F9EE
:10194000D848D94BD94A1146009004F11C0007F041
:1019500000F9D4480023D64AD649009004F1380053
:1019600007F0F7F8002003460246D349009004F13F
:10197000540007F0EEF80020034602464FF0804185
:10198000009004F1700007F0E4F8CC48CC4B4FF025
:101990007C524FF07F51009004F18C0007F0D9F891
:1019A000C04800231A46C749009004F1A80007F078
:1019B000D0F838BD10B5044607231C22C249204682
:1019C00007F0EEF8044604F1C40008F02EF9A0F187
:1019D000C40404F1D00008F028F9A0F1D00404F107
:1019E000EC0008F022F9A0F1EC04962004F8DC0FDA
:1019F000322060706420E082DC3C2046FFF796FFD6
:101A0000204610BD10B50446B049086B08F030FF01
:101A1000C4F8D80010BD2DE9F04188B0044603A8F1
:101A2000002181604160016000BFA9490868A9499F
:101A300008F0E4FF0746A849B1F9141048004FF434
:101A4000AF72514201F0BDFF804608F077FF0646B5
:101A5000394609F093F9054608F00AFF06909C49BB
:101A600048689C4908F0CAFF07469B49B1F916101F
:101A700048004FF4AF72514201F0A3FF804608F0D6
:101A80005DFF0646394609F079F9054608F0F0FE93
:101A900007900221069801F09FFF06900221079807
:101AA00001F09AFF07904FF081428949183168464A
:101AB00008F01DF99DE8070003AB07C304F15400CB
:101AC000069901F079FC074608F038FF06460399AD
:101AD00009F054F9054608F0CBFEC4F8E00004F123
:101AE0005400079901F068FC074608F027FF0646F6
:101AF000049909F043F9054608F0BAFEE4210851BB
:101B000094F8DD007449B1F9181000FB01F5E917EC
:101B100005EBD161481108F011FF0746059909F05E
:101B20002DF9064608F0A4FEE821085108B0BDE8EA
:101B3000F0812DE9FF47054665494868002109F015
:101B400029F802D26248406803E06148406880F0AA
:101B5000004007465E490868002109F01BF802D2E0
:101B60005B48006803E05A48006880F00040804607
:101B7000394609F00FF80DD255490868002109F0DF
:101B800009F802D25248006811E05148006880F01C
:101B900000400CE04E494868002108F0FBFF02D2EB
:101BA0004B48406803E04A48406880F000400446E3
:101BB0004A4A002101F0CBFE064600241BE04648BD
:101BC000C08840F2E241884205DAC4EBC40105EB6B
:101BD000810001F02BFC05F1E00252F82410C4EB67
:101BE000C40205EB8200364A01F0F6FB01A941F878
:101BF0002400601CC4B2032CE1DB374BB3F918306E
:101C0000002B03DD344BB3F9183003E0324BB3F94A
:101C100018305B4203F596722F4BB3F91830002B46
:101C200003DD2D4BB3F9183003E02B4BB3F918301B
:101C30005B422B4CE11A039801F0C3FE4042039033
:101C40002848007BD8B9304601F0D7FE824607F01D
:101C500035FA80462049B1F91A10A1F57A7008F0DA
:101C60006DFE8146414608F00DFD07461E4908F00D
:101C700095FC044608F0FCFD01B217484183039827
:101C800000901548408B81B21848DDE9012300F02F
:101C9000A9FABDE8FF877047704710B51448FFF7F1
:101CA00089FE10BD000048430AD7A33C9A99193E0B
:101CB0006666E63ECDCC4C3F0000A04000001643D7
:101CC0006F12033B9A99993F618B0008FC04002036
:101CD0001002002000002041D00500200000A0419B
:101CE000D4FEFFFFC400002000007A44F00400206E
:101CF0001801002010B50446204600BF04462046C7
:101D000007F062FF044604F10C0007F05DFFA0F14C
:101D10000C0404F1180007F057FFA0F1180404F1B7
:101D2000240007F051FFA0F1240404F1300007F073
:101D30004BFFA0F1300404F13C0006F0CEFEA0F110
:101D40003C0404F1600006F0C8FEA0F1600404F158
:101D5000880006F0D1FEA0F1880404F5C87006F0F2
:101D6000CBFEA0F5C87404F527704FF07E510160DA
:101D70000021C1608160416000BFA0F5277420464A
:101D800010BD10B5044662224FF47A71F74803F093
:101D90005FF810BD10B50446F54AF6492046FFF736
:101DA0002BFCF549086004F13C03F14AF149204657
:101DB000FFF73CFC04F16003F04AEE492046FFF7D0
:101DC00035FCEF4AEB492046FFF7A5FCEA4948609D
:101DD00010BD10B504462046FFF7DCFF2046FFF794
:101DE000D0FF10BD3EB50446E04803F003F9DF48DC
:101DF00003F0D3F9DD49684603F033FA9DE80700A4
:101E0000C4E90412E060D949684603F023FA9DE86A
:101E10000700C4E90A1260623EBDFFB595B00446F2
:101E2000219E09A807F0D0FE06A807F0CDFED548F0
:101E3000007800F0010048B9D24806F0C3FE28B18E
:101E4000D14807F0C1FECF48AFF300801EAD284651
:101E500007F046FF07463946284607F0BEFE00BF9A
:101E600009A904F5277001F0F9FE09AA1EA903A823
:101E700007F0C9FF03A807C806AB07C3C34A06A9F2
:101E800003A807F088FF03A807C812AB07C312A96D
:101E9000BD4807F0B6FE4FF0804206A903A807F040
:101EA0007AFF03A807C80CAB07C3B74A0CA968465A
:101EB00007F08DFF9DE807000FAB07C30FA916A819
:101EC00007F09FFE324616A904F5277001F037FF90
:101ED00004F5277001F008FE04F10803221D2146D5
:101EE00004F5277002F0BDF819B0F0BD2DE9F047F8
:101EF00082460C46A6490968601A08F0EBF80746C6
:101F0000A44AA54B08F036F9054607F0B7FF81460D
:101F10009F4804604846BDE8F0872DE9F04395B03E
:101F200004460EA807F00EFE08A807F00BFED4E941
:101F30000A01CDE9000104F13C02214605A8636ACB
:101F4000FFF720FC05A807C8C4E90D122063D4E9F7
:101F50000401CDE9000104F16002214605A8E3680F
:101F6000FFF710FC05A807C8C4E90712A06104F137
:101F700030052946284607F0F2FE8146874908F0D9
:101F80003DFD80464FF0974108F07CFB074608F086
:101F90006FFCC4F8AC0202F017F90546294620464A
:101FA000FFF7A4FF0646206A0090704905A8D4E90F
:101FB000062303F05DF90396D4E90D12206B8DE83A
:101FC0000700204605A90EC9FFF727FF15B0BDE899
:101FD000F0832DE9F0418CB080460C4603A807F051
:101FE0009DFD684607F0F0FD206801F006FD80F0D9
:101FF0000045606801F001FD80F00046A06801F036
:10200000FCFC074600950196029700BF694603A8AD
:1020100007F000FD04F1300203A9404607F00EFE70
:102020000CB0BDE8F081FFB591B004461D9D5C4841
:10203000007800F0010048B9594806F0C3FD28B106
:10204000584807F0C1FD5648AFF30080554A129931
:10205000106808F0A3FA06464FF08041284608F0C1
:1020600011FB0746314608F0C9FC20604D4A139920
:10207000506808F093FA06464FF08041284608F071
:1020800001FB0746314608F0B9FC6060454A1499E7
:10209000906808F083FA06464FF08041284608F021
:1020A000F1FA0746314608F0A9FCA0603D4812A9A4
:1020B0000EC90EC008A807F031FD214608A807F098
:1020C000A9FC3948007800F0010068B9364806F0EC
:1020D00079FD48B14FF08B4300221146334807F099
:1020E0006FFD3148AFF300803148007800F0010007
:1020F00060B92F4806F066FD40B100231A462D490D
:102100002D4807F05DFD2A48AFF30080274A08A953
:1021100005A807F093FD254805A90EC90EC0264A5B
:1021200008A905A807F08AFD234805A90EC90EC015
:102130001148406804901AA807C801AB07C31B48A0
:1021400080680090194821460CC805A8FFF7BAFB23
:10215000164805A90EC90EC021460C3807F0FAFC36
:102160002146154807F020FD15B0F0BD1C060020E3
:10217000000048426F12033BC400002000000243ED
:102180006666E63F2C000020E40400206F12833ACC
:102190001C0000208DEDB5A0F7C6B03E0000C8427F
:1021A00028000020C004002024000020CC040020CF
:1021B0002000002000004843D804002010B5024849
:1021C000FFF798FD10BD000010020020014600201E
:1021D00005E04FF47A7221F81020421CD0B2062894
:1021E000F7DB70472DE9F04F8FB004460D461646D9
:1021F0009B46DDF86090484607F055FFCDE90A019F
:10220000584607F050FF0746914A924B07F0B2FF3D
:10221000CDE90601304607F046FF00228E4BCDE99E
:10222000000107F0A7FF07468846284607F052FF3F
:102230003A464346CDE9020108F09AF8CDE9040197
:10224000DDE9062307F04CFECDE90801DDE90A23AC
:1022500007F046FECDE90C0107F0F6FE00B2A080C3
:10226000484607F020FFCDE90A01584607F01BFF5A
:102270000746774A774B07F07DFFCDE906013046E8
:1022800007F011FF07460022734B07F073FFCDE9FB
:102290000201284607F01EFFCDE90001DDE9022317
:1022A00008F066F8CDE90401DDE9062308F060F8DE
:1022B000CDE90801DDE90A2307F012FECDE90C01A2
:1022C00007F0C2FE00B26080484607F0ECFECDE9A0
:1022D0000A01584607F0E7FE07465D4A5D4B07F0E6
:1022E00049FFCDE90601304607F0DDFE00225A4BDA
:1022F000CDE9000107F03EFF07468846284607F073
:10230000E9FE3A464346CDE9020107F0E9FDCDE991
:102310000401DDE9062307F0E3FDCDE90801DDE96D
:102320000A2308F025F8CDE90C0107F08DFE00B274
:102330002080484607F0B7FECDE90A01584607F06D
:10234000B2FE0746424A434B07F014FFCDE90601AF
:10235000304607F0A8FE074600223F4B07F00AFF71
:10236000CDE90201284607F0B5FECDE90001DDE91F
:10237000022307F0B5FDCDE90401DDE9062307F0EE
:10238000F7FFCDE90801DDE90A2307F0F1FFCDE908
:102390000C0107F059FE00B2E080A81BA0EB090079
:1023A00000B26081A819484400B22081B4F900A0AD
:1023B000012007E034F91010514501DD34F910A077
:1023C000411CC8B20628F5DB002719E040F26C700A
:1023D000824507DD34F81710AAF26C70081A00B2B3
:1023E00024F8170034F8171088B240F26C7240F2EB
:1023F0004C4101F0DBFA00B224F81700781CC7B298
:10240000062FE3DB1548407A10B92046FFF7DEFEC1
:102410001248007B40B91248C08840F2E24188422D
:1024200002DA2046FFF7D2FE21460E4803F00FFBEA
:102430000FB0BDE8F08F02880A8042884A80828807
:102440008A80C288CA8002890A8142894A8170478B
:1024500083C0CAA145B6EB3F0000E03FC4000020A6
:10246000D00500209300002010B50446204600BF90
:10247000044604F1100007F0A7FBA0F1100404F1DA
:102480001C0007F0A1FBA0F11C0404F1280007F0D8
:102490009BFBA0F1280404F1340007F095FBA0F1A8
:1024A000340404F1400007F08FFBA0F1400404F174
:1024B000500006F012FBA0F1500404F1740006F085
:1024C0000CFBA0F1740404F1B40007F07DFBA0F153
:1024D000B4044FF082431A46194604F1B40007F0E1
:1024E00078FBFE489834A0614FF48020A062FC483D
:1024F00044F89809FB499C200151FB49A020015157
:10250000FA49A4200151FA49A8200151F949AC2007
:102510000151204610BD10B50446F74802F020FFD7
:1025200010BD10B5044604F15003F44AF4492046A6
:10253000FFF77CF804F17403F24AF1492046FFF7F3
:1025400075F810BD10B504462046FFF7EAFF204697
:10255000FFF7E1FF10BD01B5AEB017A807F034FBDF
:1025600014A807F031FBE84800680A2803D0E748C0
:10257000007802287DD10020E44908705521E34805
:1025800003F00AFC0020E049086001F01DFEE0496C
:102590000968401A0F9007F09DFDDE4ADE4BCDE939
:1025A000100107F0E7FDCDE9120107F067FC1A9072
:1025B00001F00AFED64908602E98C068129008F013
:1025C000BDF9024613902E9974312E98FFF751F9F8
:1025D0002E9988602E988068D0490968401A119019
:1025E00008F0C4F912901A9908F04CF8139008F00A
:1025F0003FF901B22E9841802E988068C749086043
:102600002E98B0F902004FF4FA525142139001F0A3
:10261000D8F901B22E9841802E98B0F902006421B9
:10262000139001F0D9F901B22E9841802E98C0681C
:10263000BA490968884205D1B9480078401CB849B0
:10264000087002E00021B64801702E98C068B349B6
:1026500008602E98806800280FDD2E988068B0F5FD
:102660007A7F0ADAAE4800781E2806DA01212E9811
:1026700000E006E080F8D01003E000212E9880F8FA
:10268000D010A1480068401C9F490860A548006818
:10269000052803D1984802F078FF09E2A1480068B4
:1026A0000A28FAD101F090FD9F490968401A0F905D
:1026B00007F010FD974A984BCDE9100107F05AFD3D
:1026C000CDE9120107F0DAFB1A9001F07DFD964981
:1026D0000860002193480160874802F056FF864851
:1026E00002F06FFF129008F029F9024613902E991C
:1026F00050312E98FFF794F82E9948602E98416833
:10270000D0F8C400081A119008F018F912901A991C
:1027100007F0B8FF139008F0ABF801B22E980180D3
:102720002E984168C0F8C4102E98B0F900004FF4FC
:1027300048725142139001F044F901B22E98018081
:102740002E98B0F900000A21139001F045F901B26A
:102750002E9801802E9890F8D00000287ED02E98D8
:10276000B0F90200119008F0E9F812902E98406A32
:1027700001461190129808F001FB1390169801463B
:102780001290139807F00AFF16902E98D0F8A00028
:10279000014608904FF07E5008F0F0FA099007F0DB
:1027A000D1FECDE90C012E98B0F90200079007F098
:1027B0007AFC5E4A5E4BCDE9080107F0DBFCCDE90F
:1027C0000A01DDE90C2307F0D5FCCDE910012E98B4
:1027D000D0F8A0000C902E98406A0B900C9908F04D
:1027E0000DF90D9007F0AEFECDE90E01DDE91023E5
:1027F00007F076FBCDE9120107F040FB01462E9869
:1028000041622E98D0F8AC00014608904FF07E50FF
:1028100008F0B4FA099007F095FECDE90C012E9866
:102820008068079007F03FFC404A414BCDE9080122
:1028300007F0A0FCCDE90A01DDE90C2307F09AFCC2
:10284000CDE910012E98D0F8AC000C902E98006BBA
:102850000B900C9908F0D2F80D9000E07AE007F0A8
:1028600071FECDE90E01DDE9102307F039FBCDE95A
:10287000120107F003FB01462E9801632E98406871
:10288000039007F010FCCDE906012E9880680190B6
:1028900007F009FC254A264BCDE9020107F06AFC46
:1028A000CDE90401DDE9062307F062FDCDE9080169
:1028B00007F0E4FA0B9007F045FE1E4A1E4BCDE9E7
:1028C0000C0107F057FCCDE910012E98D0F8CC0090
:1028D0000D9007F0E8FBCDE90E012FE0FFCF743E2D
:1028E000CDCC4C3F52B87E3FA4707D3F0AD7A33B6E
:1028F000F6287C3F3333733F740600200000A0406D
:102900000AD7A33C00004842340000209400002075
:10291000400000208DEDB5A0F7C6B03E4400002079
:1029200048000020300000203C0000209A9999992E
:102930009999B93FFCA9F1D24D62503FDDE91023CE
:1029400007F0CEFACDE9120107F07EFB2E99C1F80F
:10295000CC00ADE02E98B0F90000119007F0EEFF2A
:1029600012902E98406A01461190129808F006FACB
:102970001390169801461290139807F00FFE1690C8
:102980002E98D0F8A400119016981090119908F084
:1029900035F813902E98D0F89C0001460D904FF01A
:1029A0007E5008F0EBF90F902E98B0F900000D90D2
:1029B00007F0C4FF0E900F9908F020F811902E98A0
:1029C000D0F89C000F902E98406A0E900F9908F056
:1029D00015F81090119907F0E1FD1290139907F086
:1029E000DDFD01462E9841622E98D0F8A8000146E0
:1029F0000F904FF07E5008F0C1F911902E98416869
:102A0000D0F8CC0008440F9007F098FF109011996F
:102A100007F0F4FF13902E98D0F8A80011902E988C
:102A2000006B1090119907F0E9FF1290139907F0CD
:102A3000B5FD01462E9801632E984068109007F06E
:102A40007DFF11902E98006B01461090119808F0B0
:102A500095F90021129008F09DF80DD22E9840684B
:102A6000119007F06BFF12902E98006B01461190A9
:102A7000129808F083F90EE02E984068119007F044
:102A80005DFF12902E98006B01461190129808F08D
:102A900075F980F000409A49139008F07BF807D24E
:102AA0002E984068139007F049FF01462E98016365
:102AB00094480068401C9349086001F085FB9249E6
:102AC0000968401A0F9007F005FB904A904BCDE93A
:102AD000100107F04FFBCDE9120107F0CFF91A9072
:102AE00001F072FB884908608A4911A8FFF771FA62
:102AF00011A807C817AB07C38748407A08BB2E98B0
:102B0000D0F8C000C117139000EB916081112E988E
:102B1000D0F8C000411A2E98C0F8C0102E98D0F8F6
:102B2000C000119007F00AFF129019980146119009
:102B3000129807F033FD139007F09AFE2E99C1F812
:102B4000C0002E98D0F8C000C117139000EB916020
:102B50008011119007F0F2FE129019980146119021
:102B6000129808F079F819902E98D0F8B4000F90C8
:102B700007F07EFE119017980F9007F079FE1090E5
:102B8000119900F029FF129007F0D8FE13902E98AB
:102B9000D0F8B00001461290139807F02FFF2E993D
:102BA00008612E98D0F8B8000F9007F061FE1190E0
:102BB00018980F9007F05CFE1090119900F00CFF30
:102BC000129007F0BBFE80F0004013902E98D0F8D2
:102BD000B00001461290139807F010FF01462E989E
:102BE00041612E98D0F8BC000F9007F041FE119083
:102BF00019980F9007F03CFE1090119900F0ECFE30
:102C0000129007F09BFE13902E98D0F8B00001466A
:102C10001290139807F0F2FE01462E9881612E9AC9
:102C200040322E991C3111A807F0D1F811A807C81D
:102C300024AB07C324A90EA81A9A07F0ACF80EA873
:102C400007C827AB07C34FF07C5227A90BA807F092
:102C5000A2F80BA807C82AAB07C32AA92E982830C8
:102C600006F0CFFF2E98D0E90823C16940300EC08E
:102C70002E9A34322E99103111A807F0A8F811A815
:102C800007C81BAB07C31BA90EA81A9A07F083F845
:102C90000EA807C81EAB07C34FF07C521EA90BA895
:102CA00007F079F80BA807C821AB07C321A92E9814
:102CB0001C3006F0A6FF2E98D0E9052301693430B8
:102CC0000EC02FB000BD10B5044600231A461946A9
:102CD00004F1100006F07DFF00231A46194604F1A6
:102CE0001C0006F076FF00231A46194604F128005E
:102CF00006F06FFF10BD10B50848FFF7B5FB10BD1B
:102D00000000484330000020380000208DEDB5A0C1
:102D1000F7C6B03E10020020C4000020FC040020D2
:102D200010B50446FE490888FE49098801F01AFEDC
:102D300010BD1CB50446FA490889694601F06DFCCE
:102D4000F74948890DF1020101F067FCF4498889CF
:102D500001A901F062FCBDF8000000B2F24908814F
:102D6000BDF8020001B2F0484181BDF8040001B293
:102D7000ED4881811CBD1CB50446E9494888694677
:102D800001F04BFCE64988880DF1020101F045FC99
:102D9000E349C88801A901F040FCBDF8000000B279
:102DA000E1494880BDF8020001B2DF488180BDF8EA
:102DB000040001B2DC48C1801CBD38B50446D849C6
:102DC000C889694601F029FCBDF8000007F0CEFD76
:102DD0000546D64907F056FCD5490860D049088A0F
:102DE000694601F01AFCBDF8000007F0BFFD05467A
:102DF000CE4907F047FCCE494860C949488A694630
:102E000001F00BFCBDF8000007F0B0FD0546C94914
:102E100007F038FCC6498860C149888A694601F0D4
:102E2000FCFBBDF8000007F0A1FD0546BF4907F017
:102E300029FCBF49C861BA49C88A694601F0EDFB5F
:102E4000BDF8000007F092FD0546B84907F01AFCEE
:102E5000B7490862B249088B694601F0DEFBBDF84C
:102E6000000007F083FD0546B24907F00BFCB049AE
:102E70004862AB49488B694601F0CFFBBDF80000C2
:102E800007F074FD0546A94907F0FCFBA8498863D3
:102E9000A349888B694601F0C0FBBDF8000007F02C
:102EA00065FD0546A14907F0EDFBA149C8639C49B2
:102EB000C88B694601F0B1FBBDF8000007F056FD74
:102EC00005469C4907F0DEFB994908649449088C43
:102ED000694601F0A2FBBDF8000007F047FD05467A
:102EE000924907F0CFFB9249C1F8A8008C49488C61
:102EF000694601F092FBBDF8000007F037FD05467A
:102F00008A4907F0BFFB8A49C1F8AC008449888C24
:102F1000694601F082FBBDF8000007F027FD054679
:102F2000844907F0AFFB8249C1F8B0007C49C88CE6
:102F3000694601F072FBBDF8000007F017FD054679
:102F40007A4907F09FFB7A4948657549088D6946BB
:102F500001F063FBBDF8000007F008FD054673496A
:102F600007F090FB724988656D49488D694601F00C
:102F700054FBBDF8000007F0F9FC05466D4907F069
:102F800081FB6B49C8656649888D694601F045FB40
:102F9000BDF8000007F0EAFC0546644907F072FB43
:102FA000634908675E49C88D694601F036FBBDF884
:102FB000000007F0DBFC05465C4907F063FB5C4959
:102FC00048675749088E694601F027FBBDF80000A5
:102FD00007F0CCFC0546574907F054FB5449886775
:102FE00038BD10B504462046FFF7E7FE2046FFF740
:102FF000C2FE2046FFF79DFE10BD70B505464C4948
:1030000008684A4907F0FAFC064607F077FC84B2E4
:103010004349C889214601F0A5FC45494868434910
:1030200007F0ECFC064607F069FC84B23C49088ACC
:10303000214601F097FC3E4988683E4907F0DEFCD6
:10304000064607F05BFC84B23549488A214601F008
:1030500089FC3749C869354907F0D0FC064607F0B6
:103060004DFC84B22E49888A214601F07BFC304910
:10307000086A2E4907F0C2FC064607F03FFC84B2FE
:103080002749C88A214601F06DFC2949486A294927
:1030900007F0B4FC064607F031FC84B22049088BE7
:1030A000214601F05FFC2249886B204907F0A6FC0D
:1030B000064607F023FC84B21949488B214601F0EB
:1030C00051FC1B49C86B194907F098FC064607F0EC
:1030D00015FC84B21249888B214601F043FC144947
:1030E000086C144907F08AFC064607F007FC84B216
:1030F0000B49C88B214601F035FC0D49D1F8A800D9
:103100000A4907F07BFC064607F0F8FB84B2044945
:10311000088C214601F026FC0549D1F8AC000BE0F3
:103120004EAF00084C0000201C0600200000C842E2
:103130001801002000007A445E4907F05FFC064653
:1031400007F0DCFB84B25C49488C214601F00AFCA4
:103150005A49D1F8B0005A4907F050FC064607F02A
:10316000CDFB84B25449888C214601F0FBFB5349C6
:10317000486D504907F042FC064607F0BFFB84B299
:103180004D49C88C214601F0EDFB4C49886D4949F9
:1031900007F034FC064607F0B1FB84B24649088DBF
:1031A000214601F0DFFB4549C86D454907F026FC83
:1031B000064607F0A3FB84B23F49488D214601F043
:1031C000D1FB3E49086F3B4907F018FC064607F063
:1031D00095FB84B23849888D214601F0C3FB3749FD
:1031E000486F344907F00AFC064607F087FB84B2B3
:1031F0003149C88D214601F0B5FB3049886F30490F
:1032000007F0FCFB064607F079FB84B22A49088EDA
:10321000214601F0A7FB70BD38B504462649088851
:10322000694601F0FAF9BDF8000038BD10B5044652
:103230002046FFF7F1FF23490988884202D0204643
:10324000FFF7DBFE2046FFF7CCFE2046FFF768FDC8
:1032500010BD10B504461C4A528891B2164A5088D7
:1032600001F080FB184A928891B2134A908801F0CD
:1032700079FB154AD28891B20F4AD08801F072FBCF
:1032800010BD10B50446104A128991B20A4A10893D
:1032900001F068FB0C4A528991B2074A508901F04B
:1032A00061FB094A928991B2034A908901F05AFB65
:1032B00010BD00000000C8424EAF000818010020F9
:1032C00000007A444C0000201C0600202DE9F05F2D
:1032D00004460E4617460021A06807F095FA3AD03A
:1032E0000021384607F090FA35D0A06920F000415F
:1032F000C1F1FF41C90F19B100250020A06108E00C
:103300006169701A07F01AFB8046394607F0BAF96E
:1033100005462846A16907F031FD824639464548F1
:1033200007F03CF983465946384607F0ABF9814629
:10333000514607F063FB8046A16907F02FF9054667
:103340006661A5612946A06807F058FB804607F032
:103350008FFABDE8F09F0020FBE72DE9F047044617
:103360000E4615460021606807F04EFA22D0002173
:10337000284607F049FA1DD0304607F0DFFA8146AB
:10338000616807F03BFB8046294607F037FB07469C
:10339000216907F003F92061E06880F000470246E8
:1033A0003946206900F0D3FA2061206907F060FAFD
:1033B000BDE8F0870020FBE72DE9F04104460D460B
:1033C000284607F0BBFA0746216807F017FB0646B8
:1033D00007F04EFABDE8F0812DE9F04104460D46B4
:1033E000164629462046FFF7E7FF0746324629469C
:1033F0002046FFF7B2FF0744324629462046FFF732
:1034000065FF3844BDE8F0812DE9F04104460D46E2
:10341000164629462046FFF7CFFF07463246294683
:103420002046FFF79AFF3844BDE8F0810021016192
:10343000704700000361023C30B50146002013E0F4
:1034400000FB00F2193A32235A4302F6C4124243F7
:103450005A4340F6C41392FBF3F213B201F11C027B
:1034600022F81030421CD0B20728E9DB00202EE001
:1034700000EB80046400A4F132020123002A00DD85
:103480003223002A00DA3223002503FB03F495FBE4
:10349000F4F4643454430A2594FBF5F404F5FA7407
:1034A00025B201F12A0424F8105034F910404FF4E9
:1034B00048756C434FF47A7594FBF5F404F24C4470
:1034C00025B201F12A0424F81050421CD0B20C2875
:1034D000CEDB30BD10B504462046FFF7ADFF2046D9
:1034E00010BD2DE9F05F0446002060E034F81010B4
:1034F000A1F2DC51002904DD34F81010A1F2DC51F6
:1035000004E034F8101040F2DC52511AB1F5FA7FA1
:1035100010DA34F81010A1F2DC51002904DD34F87F
:103520001010A1F2DC5107E034F8101040F2DC5228
:10353000511A01E04FF4FA710E4602281FD064219F
:1035400096FBF1F504F11C016A1C31F9122031F9E6
:103550001510511A05EBC50202EB0512A6EB82020B
:103560005143642291FBF2F204F11C0131F8151071
:1035700011440AB204F1140121F8102005E071424F
:103580000AB204F1140121F8102034F8101040F2AE
:10359000DC52914209DA04F1140131F81010494269
:1035A0000AB204F1140121F81020411CC8B203280A
:1035B0009CDBE0884FF4FA6240F2E24100F0F6F959
:1035C0000646A6F2E2404FF47A71484340F2EE21FB
:1035D000B0FBF1F6642096FBF0F58648007B08BB53
:1035E00004F12A00691C30F9111030F91500081A8D
:1035F00005EBC50101EB0511A6EB810148436421F0
:1036000090FBF1F104F12A0030F81500084401B2F2
:103610006183E0884FF4FA6240F2E24100F0C6F9BB
:1036200001B26183B4F91800002802DDB4F9180072
:1036300002E0B4F918004042462833DAE08840F24C
:10364000E24188422EDD6C4AD2F89812906807F069
:1036500095FB804607F00CF907B217F1B40F02DCB6
:1036600007F5B47007B2B42F02DBA7F5B47007B248
:10367000784207B2384607F061F983465F48016F28
:10368000584607F0BBF98146B4F9180007F056F91F
:103690008246494607F072FB804607F0E9F801B21E
:1036A000218304E0544880685349C1F89802BDE87A
:1036B000F09F0146002034E031F81020B2F5617F20
:1036C00004DB31F81020B2F5FA6F00DD2BE031F8A1
:1036D000102040F2E2439A4207DA494A125C494B11
:1036E0001B781A43474B1A7006E0454A135C454A5B
:1036F00012789A43434B1A7031F81020B2F5E16FFB
:1037000007DD414A125C3F4B1B781A433D4B1A7050
:1037100006E03D4A135C3B4A12789A43394B1A70D3
:10372000401C0428C8DB00BF364A12784AB1374A29
:103730001278FA2A0ADA354A1278521C334B1A7078
:1037400004E00022314B1A702E4B1A702F4A127867
:10375000642A29D1274A527A6AB12A4A127802F099
:103760001002E2B1274A127802F04002BAB10023F7
:10377000204A537213E0234A127802F0200272B1F9
:10378000204A127802F040024AB11A4A127A1AB15B
:103790000123184A537202E001221D4B5A70002285
:1037A000184B1A70194B1A7070471A494989002929
:1037B0001ADD1849498940F63402914214DA154954
:1037C0004989002905DD1349498940F21452914283
:1037D0000ADB10494989B1F5AF6F04DD0D4949890C
:1037E000B1F5C86F00DB00BF704700B50948FFF7AF
:1037F00071FE00BDC400002010020020180100204E
:1038000046AF00084F0000204AAF00084E000020DD
:103810001C060020D005002010B53848FCF7DEFF5C
:103820003648FDF7FAFC10BD10B53548FEF7DAFA58
:103830003348FEF772FB3348FEF77BF93248FEF758
:103840008AFE10BD10B52F48FEF7E5F810BD10B583
:1038500000F0CCFD10BD10B52C48FFF742FE2B4800
:10386000FFF727FF2948FFF7A0FF2448FDF79FFE39
:103870002748FCF7A4FC2348FEF70DFA2148FEF781
:103880000BFA10BD10B523480088012804DBFFF7B0
:10389000C3FF00201F4908801E484088022804DB1F
:1038A000FFF7C2FF00201B4948801A48808805287E
:1038B00004DBFFF7C7FF0020164988801548C08841
:1038C0000A2804DBFFF7C3FF00201249C880114813
:1038D0000089142804DBFFF7BEFF00200D49088192
:1038E00010BD00210181C18081804180018070472D
:1038F00000B50848FFF7F5FF00BD0000D400002028
:103900001002002018010020FC040020D005002037
:10391000C40000201206002010B50446204605F021
:1039200038F908B1002010BD4FF07E51204607F055
:1039300031F901D86748F6E76749204607F02AF8C9
:1039400001D86648EFE7204605F0F6F9EBE72DE9E8
:10395000F04106460C461546304605F01AF950B1BE
:103960002946204606F01AFE07464FF07C5107F024
:1039700045F8BDE8F0812146304607F00BF801D24A
:103980002046F6E72946304607F004F901D22846DA
:10399000EFE73046EDE703468B4201DA0846704711
:1039A000934201DD1046FAE71846F8E703468B42DA
:1039B00001DA08467047934201DD1046FAE71846DF
:1039C000F8E703468B4201DA08467047934201DD6F
:1039D0001046FAE71846F8E7002801DD024600E045
:1039E00042428A4201DA002006E0002801DD401A46
:1039F00002E0002800DA0844704710B50446384950
:103A0000204606F0FBFF10BD10B5044635492046A0
:103A100006F0F4FF10BD10B504462146204606F01E
:103A2000EDFF10BD2DE9F04105460C462046FFF79D
:103A3000F2FF07462846FFF7EEFF8046394606F0BC
:103A4000ADFD064605F0D0FFBDE8F0812DE9F05F41
:103A500006460C4615462846FFF7DDFF8146204600
:103A6000FFF7D9FF82463046FFF7D5FF8346514620
:103A700006F094FD8046494606F090FD074605F0A5
:103A8000B3FFBDE8F09F2DE9FE4F07460C461546F3
:103A90001E463046FFF7BFFF02902846FFF7BBFFE8
:103AA00001902046FFF7B7FF00903846FFF7B3FFBD
:103AB0008346009906F072FD8246019906F06EFD7C
:103AC0008146029906F06AFD804605F08DFFBDE84B
:103AD000FE8F0000DB0FC93F000080BFDB0FC9BFB6
:103AE00034FA8E3CE12E654270B5044694E80F002E
:103AF000FFF7C9FF05462946206806F0C3FD206090
:103B00002946606806F0BEFD60602946A06806F0A0
:103B1000B9FDA0602946E06806F0B4FDE06070BD24
:103B20002DE9F04F85B004460D46A168084606F021
:103B300065FF0746D4E9020106F060FF8046616830
:103B4000084606F05BFF8146D4E9010106F056FF06
:103B50008246E168606806F051FF0490D4E90001F4
:103B600006F04CFF0390A168206806F047FF029022
:103B7000E168206806F042FF0190E168084606F01F
:103B80003DFF00903846009906F008FD83464FF04F
:103B9000804106F033FF06464FF07E5107F05CF897
:103BA00028605046019907F0E9F806464FF0804139
:103BB00006F024FF68600299049806F0EFFC0646C0
:103BC0004FF0804106F01AFFA8605046019906F0B8
:103BD000E5FC06464FF0804106F010FFE8604846DD
:103BE000009906F0DBFC83464FF0804106F006FFAB
:103BF00006464FF07E5107F02FF8286140460399A2
:103C000007F0BCF806464FF0804106F0F7FE686109
:103C10000299049807F0B2F806464FF0804106F08A
:103C2000EDFEA8614046039906F0B8FC06464FF049
:103C3000804106F0E3FEE8613946484606F0AEFCF6
:103C400083464FF0804106F0D9FE06464FF07E5184
:103C500007F002F8286205B0BDE8F08F2DE9F047C3
:103C600004460D46A168206806F0C8FE0746E168D4
:103C7000606806F0C3FE8046394607F07FF80646C6
:103C80004FF0804106F0BAFE2860D4E9020106F048
:103C9000B5FE0746D4E9000106F0B0FE804639467D
:103CA00006F07CFC06464FF0804106F0A7FE6860F7
:103CB000A168084606F0A2FE80466168084606F044
:103CC0009DFE8146414606F069FC07464FF0804163
:103CD00006F094FE06464FF07E5106F0BDFFA86048
:103CE000BDE8F08770B58CB006460C4603AD28469B
:103CF00005F06AFF054605F10C0005F065FFA0F12F
:103D00000C0505F1180005F05FFFA0F1180500BFD4
:103D1000A06880F00040A06003A93046FFF700FFD4
:103D2000224603A9684605F089FF9DE8070084E85C
:103D30000700A06880F00040A0600CB070BD2DE9C5
:103D4000F04F8FB0044689469246504606F0FAFB83
:103D5000CDE90801D9F80810E06806F04FFE04909C
:103D6000D9F80410A06806F049FE0390606880F05E
:103D700000400190D9F8001006F040FE029003992F
:103D800006F0FCFF8346049906F0F8FF059006F064
:103D9000D9FB07460022F74B06F0ECF9CDE9060106
:103DA000DDE9082306F0E6F905460E46206806F030
:103DB000C9FB2A463346CDE90A0106F091F8CDE960
:103DC0000C0106F05BF82060504606F0BBFBCDE925
:103DD0000601D9F80410E06806F010FE0490D9F846
:103DE0000810A06806F00AFE0390D9F800102068B9
:103DF00006F004FE0290039906F0D0FB8346049976
:103E000006F0BCFF059006F09DFB07460022D94B4B
:103E100006F0B0F90546DDE9062306F0ABF9CDE979
:103E20000A01606806F08EFBCDE90801DDE90A238E
:103E300006F056F8CDE90C0106F020F86060504617
:103E400006F080FBCDE90801D9F80010E06806F023
:103E5000D5FD0490D9F80810606806F0CFFD0390F6
:103E6000D9F80410206806F0C9FD0290039906F005
:103E700085FF8346049906F091FB059006F062FBEE
:103E80000022BC4BCDE9060106F074F90746DDE9D6
:103E9000082306F06FF9CDE90A01A06806F052FB8D
:103EA0000546DDE90A2306F01BF8CDE90C0105F013
:103EB000E5FFA060504606F045FBCDE90601D9F8C4
:103EC0000010A06806F09AFD0390D9F8041060680D
:103ED00006F094FD8346D9F80810206806F08EFDA0
:103EE0005946029006F05AFB8046039906F046FFB9
:103EF000074606F027FB054600229E4B06F03AF9DE
:103F0000CDE90401DDE9062306F034F9CDE90A0123
:103F1000E06806F017FBCDE90801DDE90A2305F0AA
:103F2000DFFFCDE90C0105F0A9FFE0600FB0BDE8AF
:103F3000F08F2DE9F04F85B004460D4616461F461A
:103F40004FF07C51284606F059FD824605F0B6F840
:103F500080464FF07C51304606F050FD824605F019
:103F6000ADF881464FF07C51384606F047FD824659
:103F700005F0A4F804904FF07C51284606F03EFD71
:103F8000824605F06BFC03904FF07C51304606F002
:103F900035FD824605F062FC02904FF07C513846B8
:103FA00006F02CFD824605F059FC0190DDE9021077
:103FB00006F024FD0090019906F020FD8246494656
:103FC000404606F01BFD0090049906F017FD83465D
:103FD000514606F0E3FA20604046029906F00EFDD5
:103FE0000090019906F00AFD82464946039806F0C2
:103FF00005FD0090049906F001FD8346514606F048
:10400000BDFE60604946039806F0F8FC00900199F7
:1040100006F0F4FC82464046029906F0EFFC009060
:10402000049906F0EBFC8346514606F0B7FAA0600F
:10403000DDE9021006F0E2FC0090049906F0DEFCD7
:1040400082464946404606F0D9FC0090019906F0A8
:10405000D5FC8346514606F091FEE06005B0BDE810
:10406000F08F2DE9FE4F04460D4616461F468DB3D0
:10407000A168084606F0C2FC01906168084606F097
:10408000BDFC0090019906F089FA83464FF080410B
:1040900006F0B4FC82464FF07E5106F0DDFD81460D
:1040A000D4E9020106F0AAFC8346D4E9000106F037
:1040B000A5FC5946019006F071FA82464FF0804106
:1040C00006F09CFC4946029004F0CAFE8046FFF7C9
:1040D0009BFC2860C6B1E168606806F08FFC8346EF
:1040E000A168206806F08AFC5946029006F046FE58
:1040F00082464FF0804106F081FC8146FFF70CFCC0
:104100008046FFF781FC30608FB36168084606F097
:1041100075FC01902168084606F070FC009001993A
:1041200006F03CFA83464FF0804106F067FC824679
:104130004FF07E5106F022FE0290E168206806F002
:104140005DFC8346D4E9010106F058FC5946019014
:1041500006F014FE82464FF0804106F04FFC814687
:10416000029904F07DFE8046FFF74EFC3860BDE802
:10417000FE8F00000000E03F00B585B0684602F009
:10418000D6FF50490098B0FBF1F04F49086005B0E8
:1041900000BD4E480068401C4C4908604C480088EF
:1041A000401C4B49088008464088401C488008460F
:1041B0008088401C88800846C088401CC88008460B
:1041C0000089401C0881704700BF404801684FF0DB
:1041D000E02082693D4800688142F6D13A48006893
:1041E00000EB4003C3EBC010C2EBC000364B1B68B2
:1041F000B0FBF3F001EB4103C3EBC11300EBC300D1
:10420000704730B50446FFF7DFFF054600BFFFF7F4
:10421000DBFF401BA042FAD330BD10B5044603E0DB
:104220004FF47A70FFF7EDFF2000A4F10104F7D1FD
:1042300010BD70B54FF4407001F02CFEFFF79CFFED
:10424000244800684FF47A72B0FBF2F1481EB0F1D6
:10425000807F00D31BE0481E4FF0E02250615017D2
:104260000F22002807DA13071D0E1B4B00F00F0466
:10427000241F1D5503E013071C0E184B1C5400BFD0
:1042800000204FF0E02290610720106100BF00F095
:1042900084FB01F025FCFB220421114801F0E1F927
:1042A00045F6C05001F024FB4FF4165001F0BAFC63
:1042B00000F056FD00F094F802F0CBF900F0CDFAD2
:1042C00070BD000040420F0050000020540000204C
:1042D00012060020B000002018ED00E000E400E02D
:1042E0009C06002008B50121084602F080FF01214C
:1042F0004FF4017002F088FF1020ADF8000000209C
:104300008DF803006946614802F0C2FC08BD00B5A3
:1043100091B05F4802F054F85E4806905E480790FE
:10432000002008900120099000200A9080200B9026
:1043300040000C9080000D9020200E9000020F9005
:104340000020109006A9524802F0DCF801215048E4
:1043500002F003F9002001908DF8080001208DF88B
:1043600009004FF4602003900020049001208DF894
:10437000140001A947484C3801F021FE4FF4404099
:1043800002F0A6FE05230122042142484C3801F028
:10439000AEFE01213F484C3801F048FE01213D4866
:1043A0004C3801F038FE3B484C3801F056FE00BF57
:1043B00038484C3801F056FE0028F9D135484C38C1
:1043C00001F05AFE00BF33484C3801F05AFE002875
:1043D000F9D101212F484C3801F05DFE11B000BD2C
:1043E00010B5FFF77FFFFFF792FF10BD2DE9F84FE3
:1043F0002948008806F0BAFA009006F0A3F80646AD
:10440000264A274B05F0B6FE04460D4625480068AF
:1044100006F098F80646244A244B05F0ABFE804689
:1044200022462B4605F05CFD824605F027FD1D491E
:1044300008604FF08B411B48006806F023F9824664
:1044400006F080F806464FF06632194B05F092FEF2
:10445000804600224FF0804305F08CFE044605F0B4
:104460000DFD144908600846006806F06BF8044624
:104470000022114B05F042FE03D201210F48417387
:1044800002E000210D484173BDE8F88F00080140AB
:10449000080002404C24014058000020FCA9F1D241
:1044A0004D62603F5C000020560E2DB29DEFEF3F45
:1044B00066660A406000002000000C40C400002036
:1044C000034606210622F7480188F7480288ABB167
:1044D000012B1BD13AB94EF6EE60814201D100208A
:1044E00070470120FCE739B94EF6EE60824201D1F7
:1044F0000120F5E70020F3E7AB20F1E709B9002040
:10450000EEE70AB90120EBE7AB20E9E70020E7E797
:1045100070B5042600240120FFF7D2FF0446AB2C1F
:1045200006D1E04800EB8420E0490860AB2070BD74
:10453000DC4800EB8420DD490860601CD949891EF5
:1045400001EB80250CE0D94800680068401C10B9D8
:1045500004263046EBE7D5480068001DD3490860C3
:10456000D2480068A842EED38020E0E710B50424CA
:10457000CC4802F0B3F80446042C01D0204610BD0C
:104580000021C84802F0ADF90446042C01D02046B1
:10459000F5E7C54802F0A2F804462046EFE72DE90A
:1045A000F04104460F4604250026DFF8048301206D
:1045B000FFF786FF0646AB2E01D1BDE8F081701CE7
:1045C000B849891E01EB802821E0B84800680068DE
:1045D000401CB8B93946B548006802F082F9054672
:1045E000042D01D02846E8E72146B0480068801C29
:1045F00002F077F90546AD480068001DAB49086038
:104600002846DAE7A9480068001DA8490860A748BD
:1046100000684045D9D38020CFE72DE9F047064612
:104620000F46002545F255584FF001099D4CA24612
:104630000020FFF745FF0546AB2D01D1BDE8F0870F
:10464000984800EB852A99480068841E0AE0B4F86F
:104650000080B04505D134F8020C38804FF00009D5
:1046600004E0241F0AF102008442F0D800BF48464B
:10467000E4E72DE9F0474FF0060A0626002500275B
:10468000A8464FF0FF398748B0F800A08648068852
:104690005FEA0A0075D0A0F56E40EE3858B3A0F579
:1046A0008850113800286DD146B97E4802F016F8BE
:1046B0000446042C1ED02046BDE8F0874EF6EE607E
:1046C000864210D1774802F009F80446042C01D044
:1046D0002046F1E70021744802F003F90446042C57
:1046E00008D02046E8E7FFF741FF0446042C01D03C
:1046F0002046E1E7AEE07EBB002522E06948C088A5
:104700006C4931F81510884201D10FFA85F94D45F1
:1047100015D0684931F815006749FFF77EFF8046DC
:10472000B8F1010F0BD0634931F8150062490988CF
:10473000FFF735FF0746042F01D03846BCE7681C59
:1047400085B2192DDADB0021564802F0CAF804467A
:10475000042C02D02046AFE707E0534801F0BEFF2B
:104760000446042C1FD02046A6E74FF6FF70864271
:1047700012D14D4801F0B2FF0446042C03D020466C
:104780009AE711E05EE00021464802F0AAF80446EC
:10479000042C08D020468FE7FFF7E8FE0446042CDF
:1047A00001D0204688E755E036B9FFF7DFFE044622
:1047B000042C46D020467FE74FF6FF70864207D193
:1047C000394801F08BFF0446042C3AD0204673E7A9
:1047D000002523E03448801D0088364931F8151043
:1047E000884201D10FFA85F94D4515D0314931F88C
:1047F00015003149FFF711FF8046B8F1010F0BD0CA
:104800002C4931F815002C490988FFF7C8FE0746E6
:10481000042F01D038464FE7681C85B2192DD9DB2B
:104820000021214802F05DF80446042C01D0204606
:1048300042E71C4801F052FF0446042C01D02046F8
:104840003AE707E0FFF792FE0446042C01D0204629
:1048500032E700BF00BF04202EE710B5FFF709FFC5
:104860000446FFF755FE204610BD2DE9F84F0746D8
:1048700089460425DFF830A0AAF1010A0948009012
:104880004FF00008002400264FF0000B0020FFF737
:1048900017FE8046B8F1010F10D1DFF808A00248DA
:1048A000009016E0000001080004010868000020E4
:1048B000FF0701084EAF000864000020B8F1000FA8
:1048C00004D1DFF8C4A03148009002E0AB20BDE87D
:1048D000F88F4EF6EE61504602F003F80546042DBF
:1048E00001D02846F3E7FFF713FE49463846FFF7A5
:1048F00056FE0646042E01D03046E8E700241CE0B0
:10490000234830F81400B84215D0214931F814007A
:104910002049FFF782FE8346BBF1010F0BD01C49F3
:1049200031F814001B490988FFF739FE0646042EAA
:1049300001D03046CBE7601C84B2192CE0DB009834
:1049400001F0CCFE0546042D01D02846BFE700212A
:10495000504601F0C6FF0546042D01D02846B6E7B3
:104960002846B4E770B505460E4600243146284671
:10497000FFF715FE0446802C04D131462846FFF788
:1049800074FF0446204670BD0004010800000108C1
:104990004EAF000864000020704708B501210820D0
:1049A00002F032FC4020ADF8000003208DF8020038
:1049B00014208DF803006946E84802F069F9802068
:1049C000ADF8000003208DF8020014208DF80300DC
:1049D0006946E24802F05CF908BD704700B501463F
:1049E0004020DE4A143210600846FFF7F6FF8020B0
:1049F000DA4A143210600846FFF7EFFF4020D74A2A
:104A0000103210600846FFF7E8FF8020D34A1032CA
:104A100010600846FFF7E1FF00BD00B501464020E9
:104A2000CE4A143210600846FFF7D7FF8020CB4AE9
:104A3000103210600846FFF7D0FF4020C74A1032FE
:104A400010600846FFF7C9FFC4480830006800F04E
:104A5000800040B14020C14A143210600846FFF780
:104A6000BCFF002000BD4020BC4A14321060084644
:104A7000FFF7B3FF0120F5E710B5024608231DE05C
:104A80004020B64C143420601046FFF7A6FF01F01A
:104A9000800018B18020241F206003E08020AF4CEC
:104AA000143420604806010E1046FFF796FF4020A0
:104AB000AA4C103420601046FFF78FFF1800A3F1B6
:104AC0000104E3B2DCD14020A44C1434206010BDBA
:104AD00000B501468020A14A1032106040201060CD
:104AE0000846FFF77AFF9D480830006808B90120A2
:104AF00000E0002000F0800008B1002000BD802010
:104B0000964A143210600846FFF767FF9348083052
:104B1000006800F0800008B10020EFE780208F4A95
:104B2000143210600846FFF758FF0120E6E7F0B5A1
:104B300006460F4614461D463046FFF7C9FF08B922
:104B40000020F0BD39463046FFF796FF3046FFF7AC
:104B500064FF20B93046FFF741FF0020F1E721460E
:104B60003046FFF789FF3046FFF757FF29463046AA
:104B7000FFF782FF3046FFF750FF3046FFF72EFF6A
:104B80000120DEE700B501464020744A143210606F
:104B90000846FFF722FF8020704A10321060084656
:104BA000FFF71BFF40206D4A103210600846FFF7E8
:104BB00014FF4020694A143210600846FFF70DFFC9
:104BC00000BD10B50246082300218020634C10343C
:104BD000206016E04806010E4020604C143420602E
:104BE0001046FFF7FAFE4020241F20601046FFF712
:104BF000F4FE5A480830006800F0800008B141F027
:104C000001011800A3F10104E3B2E3D14020534CA9
:104C100014342060084610BDF0B506460C46154613
:104C20003046FFF755FF08B90020F0BD2146304659
:104C3000FFF722FF3046FFF7F0FE20B93046FFF7BE
:104C4000CDFE0020F1E729463046FFF715FF30463C
:104C5000FFF7E3FE3046FFF73BFF601CC1B2304672
:104C6000FFF70AFF3046FFF7D8FE3046FFF7A9FFEF
:104C700007463046FFF786FF3046FFF7AFFE38465F
:104C8000D3E700B501464020344A1432106008468C
:104C9000FFF7A3FE8020314A143210600846FFF768
:104CA0009CFE40202D4A103210600846FFF795FE0A
:104CB00040202A4A143210600846FFF78EFE00BDDD
:104CC0002DE9F04381460E4617461C46DDF81C8050
:104CD000B8F1010F02DA0020BDE8F0834846FFF783
:104CE000F7FE08B90020F7E731464846FFF7C4FE53
:104CF0004846FFF792FE20B94846FFF76FFE0020B6
:104D0000EAE739464846FFF7B7FE4846FFF785FE13
:104D10004846FFF7DDFE701CC1B24846FFF7ACFE07
:104D20004846FFF77AFE012509E04846FFF749FFAC
:104D300004F8010B4846FFF7A4FF681CC5B24545BF
:104D4000F3DB4846FFF73DFF04F8010B4846FFF749
:104D500019FF4846FFF742FE0120BDE7000C014065
:104D60001CB50121102002F04FFA4FF48040ADF83D
:104D7000040010208DF8070003208DF806004FF482
:104D80000050ADF8000010208DF8030003208DF8CE
:104D9000020001A9134801F07BFF6946114801F0A8
:104DA00077FF1CBD10B504464FF480410D4802F05A
:104DB0001CF810BD10B504464FF40051094802F02C
:104DC00014F810BD10B504464FF48041054802F0B8
:104DD0000EF810BD10B504464FF40051014802F022
:104DE00006F810BD0010014010B504462046FFF73C
:104DF000D3FD0446A01C04F018FF841E04F1080033
:104E000004F013FFA0F1080404F11C0004F0DCFE20
:104E1000A0F11C0404F1280004F0D6FEA0F128043F
:104E200004F1340004F0D0FEA0F13404204610BD9B
:104E300030B50346C822002007E000BF1400A2F1ED
:104E40000105AAB2FAD1441CE0B28842F5DB30BDBC
:104E50002DE9F04107460D4616462A2E15D006DCF0
:104E6000052E0CD00A2E0CD0142E16D10BE0622E7B
:104E70000DD0BC2E0DD0B6F5807F0ED10BE00624F0
:104E80000DE005240BE0042409E0032407E00224DC
:104E900005E0012403E0002401E0022400BF00BF7C
:104EA00080236B22D0213846FFF741FE052138468A
:104EB000FFF7BEFF4FF47A7090FBF5F0401E00F054
:104EC000FF0843461922D0213846FFF730FE03235E
:104ED0006B22D0213846FFF72AFE02233722D02149
:104EE0003846FFF724FE23461A22D0213846FFF722
:104EF0001EFE18231B22D0213846FFF718FE102370
:104F00001C22D0213846FFF712FEBDE8F0812DE9C2
:104F1000F0410446207800286AD0EA48007800F082
:104F2000010048B9E74803F04DFE28B1E64804F017
:104F30004BFEE448AFF30080E448008880B90023CA
:104F40001A461946A01C04F075FE00231A4619469D
:104F5000DD4804F03EFE0120DC490880BDE8F08118
:104F600004F11C01D84804F04CFED8480088C82839
:104F700039D1D648008805F0F9FC0646D2490868C0
:104F8000314605F07FFB054605F072FC00B26080FB
:104F9000CE48008805F0EAFC0646CB494868314611
:104FA00005F070FB054605F063FC01B2A180C7481F
:104FB000008805F0DBFC0746C3498868394605F0E0
:104FC00061FB06464FF08B4105F0D8FE054605F023
:104FD0004FFC01B2E1800020BC4908802070BC4831
:104FE000FEF737F9BAE7B9480088401CB74908808E
:104FF00000BFB3E72DE9FC4104463C22D021204606
:10500000FFF70AFEA0733B22D0212046FFF704FEE3
:10501000E073A17BE07B41EA00206188401A00B286
:10502000ADF800003E22D0212046FFF7F5FD2074A8
:105030003D22D0212046FFF7EFFD6074217C607C8B
:1050400041EA0021A088081A00B2ADF8020040220F
:10505000D0212046FFF7E0FDA0743F22D02120465A
:10506000FFF7DAFDE074A17CE07C41EA0021E088F2
:10507000081A00B2ADF80400BDF9040005F05EFCAA
:105080000546BDF9020005F059FC0646BDF90000D1
:1050900005F054FC07462B463246394604F11C0005
:1050A00004F097FD2046FFF732FFBDE8FC8170B5A4
:1050B0000446607800286ED08648007800F0010031
:1050C00048B9844803F07EFD28B1834804F07CFD94
:1050D0008048AFF300808148008880B900231A46D9
:1050E000194604F1080004F0A5FD00231A461946EC
:1050F000794804F06EFD01207849088070BD04F104
:105100002801754804F07DFD74480088C8283DD109
:105110007248008805F02AFC06466F490868314647
:1051200005F0B0FA054605F0A3FB00B220816B48FC
:10513000008805F01BFC064667494868314605F0C3
:10514000A1FA054605F094FB01B26181634800882D
:1051500005F00CFC064660498868314605F092FA75
:10516000054605F085FB01B2A18100205B4908805E
:1051700060705B48007A28B90121594841720120CA
:10518000574908725248FEF77CF8B7E75348008841
:10519000401C5249088000BFB0E72DE9FC4104469D
:1051A0004422D0212046FFF737FD20754322D0212D
:1051B0002046FFF731FD6075217D607D41EA0020CA
:1051C0002189401A00B2ADF800004622D0212046C5
:1051D000FFF722FDA0754522D0212046FFF71CFDD8
:1051E000E075A17DE07D41EA00216089081A00B2E6
:1051F000ADF802004822D0212046FFF70DFD2076B1
:105200004722D0212046FFF707FD6076217E607E91
:1052100041EA0021A089081A00B2ADF80400BDF9E6
:10522000040005F08BFB0546BDF9020005F086FB86
:105230000646BDF9000005F081FB07462B463246C5
:10524000394604F1280004F0C4FC2046FFF72FFF84
:10525000BDE8FC8110B5D1E90834CA6980E81C00BA
:1052600010BD10B5D1E90B348A6A80E81C0010BD6E
:105270000FB470B505460C461A49069805F0BEFBFA
:105280000646FEF7BAFB60631649079805F0B6FBC1
:105290000646FEF7B2FBA0631249089805F0AEFB84
:1052A0000646FEF7AAFBE063D4E90E12606B85E8C0
:1052B000070070BC5DF814FB10B50B48FFF794FDB8
:1052C00010BD0000700000205C060020740000206B
:1052D0004A00002078000020680600207C000020A2
:1052E000C40000208DC1793D1C06002010B5044685
:1052F00001235822EE212046FFF719FC10BD7CB592
:105300000546002001900026002418E002200090AD
:10531000A02000EB4400C2B201ABEE212846FFF70B
:10532000CFFC3044C6B29DF805009DF8041040EA59
:10533000012105F1100020F81410601CC4B2082CE3
:10534000E4DB082E01D101207CBD0020FCE710B574
:10535000044601231E22EE212046FFF7E8FB10BD84
:1053600010B504460A20FEF758FF2046FFF7EFFF6E
:105370000320FEF752FF2046FFF7C1FF2046FFF74C
:10538000B5FF10BD10B5044601234822EE2120468A
:10539000FFF7CDFB10BD38B50446032004F1200310
:1053A0000022EE2100902046FFF78AFC38BD2DE94F
:1053B000F04F8BB004464FF00008C14694F820002F
:1053C00001042120005D41EA00202221095D0843FB
:1053D000A06094F8230001042420005D41EA00202D
:1053E0002521095D0843E060608BA168A1EB0025E1
:1053F000A08A00040022218B4FEAE57CA1FB05BEB8
:1054000002FB05E301FB0C334FEADB1141EA436188
:10541000401842EBE312CDE90802608A4FEAC0303F
:105420004246E18A4FEAE57CA1FB05BE02FB05E3AB
:1054300001FB0C334FEA1B2141EA0361401842EBA8
:105440002322CDE90602A08B42464FEAE573A0FB7A
:10545000051C02FB05C200FB03204FEA402242EA82
:10546000D1504FF4FA614718B7F5FA6F19DAA7F57A
:10547000FA66764306EB86004FEA600806EB860084
:105480004FEAA009544887420BDA07F2DC5676430C
:10549000072000FB068806EB460000EBC60009EB80
:1054A0006009DDE90801B0EB080061EBE871CDE9C6
:1054B0000801DDE90601B0EB090061EBE971CDE916
:1054C00006014FF00003E168DDE9062CA1FB020BA9
:1054D00003FB02B201FB0C224FEA505141EAC22CFD
:1054E0004FEA6251DDE90802BCEB000061EB02010A
:1054F000C00B40EA414A504605F020FA3749019076
:1055000005F0C0F88346364802905846029903F0E9
:1055100097FE4FF07E51039005F09EFB31490490B9
:1055200005F06CFA059005F0A3F98246606818B1A1
:105530006068AAEB000020602B480078B0B12A48D0
:105540000078401E2849087008460078C82804DA08
:10555000264800685044254908602348007828B947
:1055600022480068C72190FBF1F060600BB0BDE8F5
:10557000F08F38B50446032004F123030022EE2106
:1055800000902046FFF79CFB38BD10B50446184834
:10559000006860B12046FFF7ECFF2046FFF7A6FE4B
:1055A0002046FFF704FF00201149086008E020466C
:1055B000FFF7F1FE2046FFF7E5FE01200C490860E9
:1055C00010BD01460868704710B50A4C2046FFF729
:1055D000E3F9044600BF10BD24FAFFFF80E6C5478B
:1055E000B1DC423ED048874A880000208400002079
:1055F00080000020740600202DE9F04105460E468B
:105600001446284600F000FB3146284600F0CAFA4E
:1056100007462146284600F0C5FA284600F0ECFA75
:105620003846BDE8F0812DE9F04707468846154623
:105630001E46384600F0E8FA4146384600F0B2FA15
:105640008146002405E0295D384600F0ABFA601C75
:10565000C4B2B442F7DB384600F0CEFA4846BDE8A3
:10566000F08770B505460C461646284600F0BCFA91
:1056700005239C4A2A212846FFF7D5FF05239A4A8D
:1056800030212846FFF7CFFF012221212846FFF7CE
:10569000B3FF012222212846FFF7AEFF1A22242160
:1056A0002846FFF7A9FF324625212846FFF7A4FF29
:1056B0000F2226212846FFF79FFF012C0AD1FF2247
:1056C00031212846FFF798FF0F2220212846FFF7B7
:1056D00093FF51E0022C0AD1FF2231212846FFF727
:1056E0008BFF0E2220212846FFF786FF44E0032C83
:1056F00021D1FF22E1212846FFF77EFFFF22E22190
:105700002846FFF779FF0F2220212846FFF774FF74
:105710005021284600F046FA7321284600F042FA4C
:1057200001223C212846FFF767FF06223D2128463B
:10573000FFF762FF20E00E2220212846FFF75CFFE2
:10574000FF22E1212846FFF757FFFF22E2212846EA
:10575000FFF752FF5021284600F024FA7321284613
:1057600000F020FA01223C212846FFF745FF0622DF
:105770003D212846FFF740FF284600F02DFA70BD76
:1057800070B506460C461546304600F02DFA052346
:10579000554A2A213046FFF746FF2B462246A021D4
:1057A0003046FFF740FF304600F016FA70BD70B586
:1057B00006460C461546304600F016FA2B462246A1
:1057C000A8213046FFF72FFF304600F005FA70BDE4
:1057D0002DE9F0470746884615461E46384600F034
:1057E00013FA4146384600F0DDF98146002406E010
:1057F0000021384600F0D6F92855601CC4B2B442E6
:10580000F6DB384600F0F8F94846BDE8F0877CB58D
:1058100005460523344A30212846FFF704FF0523B7
:105820006A4610212846FFF7D3FF002408E01DF840
:1058300004002D49095D884200D003E0601CC4B219
:10584000052CF4DB00BF052C01D101207CBD00201C
:10585000FCE770B504460D46204600F0D5F9294610
:10586000204600F09FF90021204600F09BF90646F3
:10587000204600F0C1F9304670BD70B505460721DD
:105880002846FFF7E6FF044604F04000C0B160215F
:105890002846FFF7DEFF0646212E0BDA33462A465E
:1058A00061212846FFF794FF324629460F48FAF750
:1058B00032FD04E0FF22E2212846FFF79DFE00BFF3
:1058C00004F0100038B104F0010020B1FF22E12102
:1058D0002846FFF791FE224627212846FFF78CFE37
:1058E00070BD00008E00002089000020D400002040
:1058F00030B589B0054601210C2001F085FC0F2050
:10590000ADF8040003208DF8060018208DF807007C
:1059100001A96D4801F0BCF90320ADF8040001A90C
:105920006A4801F0B5F900BF0121084601F079FC91
:105930004FF47A70684366490968B1FBF0F0401E85
:1059400084B240F2E730ADF81C00ADF818400020FA
:10595000ADF81E00ADF81A0006A94FF0804001F026
:1059600011FF6020ADF808000120ADF80A0000200A
:10597000ADF80E00ADF8100002A94FF0804001F024
:105980003EFF0821C80602F089FB02A94FF08040C3
:1059900001F077FF0821C80602F089FB02A94FF049
:1059A000804001F0BBFF0821C80602F08DFB02A970
:1059B0004FF0804001F0FDFF0821C80602F08DFB8A
:1059C0000121880702F03AFB0121880702F036FA2C
:1059D0000121022001F025FC3D4800683D49B0FB53
:1059E000F1F0401E84B240F2E730ADF81C00ADF893
:1059F00018400020ADF81E00ADF81A0006A9364880
:105A000001F0C0FE6020ADF808000120ADF80A00EA
:105A10000020ADF80E00ADF8100002A92E4801F0EC
:105A20007DFF08212C4802F04FFB02A92A4801F013
:105A3000C0FF0821284802F050FB0121264802F04F
:105A4000FDFA0121244802F0F9F909B030BD0246FF
:105A5000002014E031F91030B3F57A7F04DA4FF406
:105A60007A7321F8103008E031F91030B3F5FA6F8D
:105A700003DD4FF4FA6321F81030431CD8B2062836
:105A8000E8DB0888A0F57A704FF080439886488854
:105A9000A0F57A70104B3C3318808888A0F57A7096
:105AA0004FF080439887C888A0F57A700A4B40333E
:105AB00018800889A0F57A701B0618874889A0F518
:105AC0007A70064B1880704700080140000C0140B6
:105AD000B000002000366E0100040040400000408D
